:100000000C942A000C9447000C9447000C94470071
:100010000C9447000C9447000C9447000C94470044
:100020000C9447000C9447000C9447000C94470034
:100030000C9447000C946A040C9447000C944700FD
:100040000C9447000C9447000C9447000C94470014
:100050000C94470011241FBECFE5D8E0DEBFCDBF12
:1000600011E0A0E6B0E0E6E6F2E102C005900D92F4
:10007000A635B107D9F713E0A6E5B1E001C01D929E
:10008000A237B107E1F70E94EE050C9431090C94F8
:1000900000008F9A8E9A8D9A8C9A82B312BA88EA4F
:1000A00090E00E942006FC019093A00280939F02A2
:1000B00081E680831092A10208959093A00280931C
:1000C0009F02089580919F029091A002089520E0E0
:1000D00030E061E070E090E0809590959798E2B311
:1000E000AB01022E02C0440F551F0A94E2F74823C9
:1000F00059231416150614F440E801C040E04E2BB5
:1001000042BB48E14A95F1F700C0969A48E14A950A
:10011000F1F700C096984AE04A95F1F72F5F3F4FFC
:1001200028303105D9F60895959A88E18A95F1F736
:1001300000C095980895992787FD90950E945A08C8
:10014000E0E6F0E020E030E0408150E04817590759
:1001500039F4F901EE0FFF1FE05AFF4F8181089536
:100160002F5F3F4F32962732310571F781E00895B6
:10017000CF93DF93CAE5D1E08A910E94670081E0C6
:10018000C635D807C9F7DF91CF910C949400E7E505
:10019000F1E0908190935601A8E5B1E09C919083A5
:1001A000E9E5F1E090819C93808308951F93CF93BC
:1001B000DF9380919F029091A002FC0101900020AA
:1001C000E9F73197E81BF90B3597C8F4C0E0D0E0A8
:1001D00010E0E0919F02F091A002EC0FFD1F8081E2
:1001E000882311F0112311F011E080E20E949B009E
:1001F0000E94C7002196C430D10559F719C020913B
:10020000A102FC01E20FF11D2081211102C0109218
:10021000A1022091A102FC01E20FF11D80810E9448
:100220009B000E94C7008091A1028F5F8093A10272
:10023000DF91CF911F910C94B800E9E5F1E0808146
:100240008068808308951092BB021092C9021092B8
:10025000AE021092CB021092C8021092CA02A89A63
:100260001092BD021092BC021092BF021092BE0208
:100270001092C1021092C0021092C3021092C202E8
:100280001092C5021092C4021092C7021092C602C8
:1002900008951ABAC89B08C08091AF0291E08F3FC1
:1002A00009F490E0890F01C080E08093AF02C99B00
:1002B00008C08091B00291E08F3F09F490E0890F6F
:1002C00001C080E08093B002CA9B08C08091B10257
:1002D00091E08F3F09F490E0890F01C080E08093A6
:1002E000B102CB9B08C08091B20291E08F3F09F42C
:1002F00090E0890F01C080E08093B202CC9B08C0DF
:100300008091B30291E08F3F09F490E0890F01C022
:1003100080E08093B302CD9B08C08091B40291E04D
:100320008F3F09F490E0890F01C080E08093B40210
:10033000B39B08C08091B50291E08F3F09F490E033
:10034000890F01C080E08093B502B29B08C0809104
:10035000B60291E08F3F09F490E0890F01C080E080
:100360008093B602B19B08C08091B70291E08F3FA5
:1003700009F490E0890F01C080E08093B702B09B40
:1003800008C08091B80291E08F3F09F490E0890F96
:1003900001C080E08093B802CF9B08C08091B90271
:1003A00091E08F3F09F490E0890F01C080E08093D5
:1003B000B902CE9B08C08091BA0291E08F3F09F448
:1003C00090E0890F01C080E08093BA02989B08C03A
:1003D0008091BB0291E08F3F09F490E0890F01C04A
:1003E00080E08093BB02999B08C08091AE0291E0AF
:1003F0008F3F09F490E0890F01C080E08093AE0246
:100400009A9B08C08091C80291E08F3F09F490E068
:10041000890F01C080E08093C80208954F925F92D7
:100420006F927F928F929F92AF92BF92CF92DF9204
:10043000EF92FF920F931F93CF93DF93CDB7DEB769
:1004400064970FB6F894DEBF0FBECDBF0E9449017E
:100450002FEA822E22E0922E32EA632E32E0732EB1
:100460004CEBC42E42E0D42E560100E010E0EE2406
:10047000E394F12CEC0EFD1E2801F40181914F0153
:100480008E3F89F5F50180819181009719F00197E0
:10049000918380830E94B4058823F9F06AEC70E0B0
:1004A000C7010E946208F70101900020E9F7BF012F
:1004B000615071094AE050E0C2010E946908F701E9
:1004C00001900020E9F7CF016CE271E001970E94F2
:1004D0006208C7010E94BF0406C0F30180819181B8
:1004E0000196918380830F5F1F4FF2E06F0E711CA6
:1004F00082E0A80EB11C0630110509F0BDCF809135
:10050000C902882341F09091BB028091C9029F3FAC
:1005100009F058C03EC085EBA82E82E0B82E00E05E
:1005200010E0EE24E394F12CEC0EFD1EF501819118
:100530005F018E3F29F5F601118210820E94B405F9
:100540008823F1F060ED70E0C7010E946208F701B6
:1005500001900020E9F7BF01615071094AE050E0C5
:10056000C8010E946908F70101900020E9F7CF0156
:100570006CE271E001970E946208C7010E94BF040B
:100580000F5F1F4FF2E0CF0ED11C0630110571F640
:10059000BACF81113DC081E08093C90266ED70E061
:1005A0008E010F5F1F4FC8010E946208F801019081
:1005B0000020E9F7BF01615071094AE050E081E095
:1005C00090E017C0882321F11092C90266ED70E017
:1005D0008E010F5F1F4FC8010E946208F801019051
:1005E0000020E9F7BF01615071094AE050E080E066
:1005F00090E00E946908F80101900020E9F7CF011E
:100600006CE271E001970E946208C8010E94BF0479
:100610009091AE028091CB029F3FC9F481113DC001
:1006200081E08093CB026CED70E08E010F5F1F4F75
:10063000C8010E946208F80101900020E9F7BF019B
:10064000615071094AE050E081E090E017C08823D2
:1006500021F11092CB026CED70E08E010F5F1F4F05
:10066000C8010E946208F80101900020E9F7BF016B
:10067000615071094AE050E080E090E00E94690812
:10068000F80101900020E9F7CF016CE271E00197D9
:100690000E946208C8010E94BF049091C802809124
:1006A000CA029F3FC9F481113DC081E08093CA0214
:1006B00064EE70E08E010F5F1F4FC8010E94620858
:1006C000F80101900020E9F7BF01615071094AE08B
:1006D00050E081E090E017C0882321F11092CA0217
:1006E00064EE70E08E010F5F1F4FC8010E94620828
:1006F000F80101900020E9F7BF01615071094AE05B
:1007000050E080E090E00E946908F801019000202C
:10071000E9F7CF016CE271E001970E946208C8011D
:100720000E94BF0464960FB6F894DEBF0FBECDBF23
:10073000DF91CF911F910F91FF90EF90DF90CF90BD
:10074000BF90AF909F908F907F906F905F904F90F1
:100750000895E82FF0E0EE0FFF1FE454FD4F608393
:100760001182089582EA92E00895DF92EF92FF925B
:100770000F931F93CF93DF930E946200EC010E94BE
:10078000B40581110EC06CEE70E0CE010E946208CB
:10079000BCEBEB2EB2E0FB2E01E010E08DE2D82E98
:1007A00015C06AE371E0CE010E9462080E94B105A3
:1007B0008E010F5F1F4FBC01C8010E946208898132
:1007C0008111E6CF6BEF70E0C801E0CFEC2FFD2F79
:1007D000DF010D900020E9F7CD0101978E1B9F0BE3
:1007E0006AE371E08C0F9D1F0E946208EC2FFD2FC1
:1007F000DF010D900020E9F7BD01615071096E1B0A
:100800007F0B6C0F7D1F4AE050E0C8010E94690811
:10081000AC2FBD2FFD0101900020E9F73197EA1BB5
:10082000FB0BEC0FFD1F1182FD0101900020E9F789
:100830003197EA1BFB0BEC0FFD1FD082EC2FFD2F35
:10084000DF010D900020E9F7BD01615071096E1BB9
:100850007F0B6C0F7D1F4AE050E0F7018191919171
:100860007F010E9469080F5F1F4F0730110509F0D3
:10087000ADCFEFEAF2E000E010E02191C80101966F
:100880002223E1F04AE050E0BE010E9469088DE2B7
:100890008983BE016E5F7F4FF801EE0FFF1FE454A6
:1008A000FD4F4AE050E080819181DF91CF911F910F
:1008B0000F91FF90EF90DF900C9469088C018630C7
:1008C0009105D9F6DF91CF911F910F91FF90EF9095
:1008D000DF9008951F920F920FB60F9211248F93FD
:1008E0009F93AF93BF93EF93FF938CB18A3091F0B6
:1008F0008D3081F090919D029F3960F4E0919D02CE
:10090000F0E0E55AFE4F808380919D028F5F8093D7
:100910009D0224C0E0919D02F0E0E55AFE4F108256
:1009200010929D0280919E02811118C080915B01FE
:100930008F32A1F404C09C9190838F5F01C080E04E
:10094000E82FF0E0DF01A55ABE4F9C91E450FE4F26
:100950009111F1CF108281E080939E02FF91EF917F
:10096000BF91AF919F918F910F900FBE0F901F90ED
:1009700018955D9BFECF8CB980E090E00895CF93F1
:10098000DF93EC0102C00E94B90489918111FBCF71
:10099000DF91CF91089510BC87E089B986E880BDCA
:1009A0008AB188698AB91092CC02089580915A015F
:1009B0008823B1F08CEC9CE10197F1F700008EE008
:1009C00091E00E94BF0495E929E581E09150204023
:1009D0008040E1F700C0000087EB90E00E94BF0478
:1009E00080E00895CF92DF92EF92FF920F931F93D2
:1009F000CF93DF93CDB7DEB764970FB6F894DEBF21
:100A00000FBECDBF8C01FC0181818F3209F09AC0ED
:100A10000E946200F8012081243709F44DC0273775
:100A200021F0233709F08EC05CC010925A016FE2AA
:100A300071E00E9462080E94B2038C01C12CD12C8B
:100A4000EE24E394F12CEC0EFD1E27C00197F80173
:100A5000918380836CE371E0C7010E946208F70113
:100A600001900020E9F7BF01615071094AE050E0B0
:100A7000C6010E946908F70101900020E9F7CF0143
:100A80006CE271E001970E946208C7010E94BF04F6
:100A90008EEF9FE80197F1F70000F80180819181C6
:100AA0000097A1F6FFEFCF1ADF0A0E5F1F4F86E017
:100AB000C816D10491F746C0B8016E5F7F4F8CEC29
:100AC00092E064960FB6F894DEBF0FBECDBFDF9103
:100AD000CF911F910F91FF90EF90DF90CF900C94EA
:100AE0006208780192E0E90EF11CF7010190002004
:100AF000E9F73197EE19FF09339700F1F801838187
:100B00008032E1F4C8010E94BF04F80113824AE078
:100B100050E060E070E0C7010E945707F62E4AE0FF
:100B200050E060E070E0C80104960E945707F5E0CD
:100B3000FF1540F08F2D0E94A90304C082E491E0CC
:100B40000E94BF0464960FB6F894DEBF0FBECDBFFF
:100B5000DF91CF911F910F91FF90EF90DF90CF9099
:100B600008958CEC92E0089581E090915A019111E2
:100B700080E0089580919E02882371F10E941D01FA
:100B80008091FC018F3201F58091FD018936E1F4FD
:100B90008091FE018F32C1F48FEF91E00E94F20448
:100BA00010929E020DC090819F3261F4918190322B
:100BB00049F4833239F410929E0281E080935A0105
:100BC00080E00895319602C0ECEFF1E0828181115E
:100BD000EACF10929E02089581E008950E94490094
:100BE0000E9423010E94CB04789484EB90E00E9441
:100BF000BF0487EB90E00E94BF04C0E0D0E00E94F9
:100C0000BA050E94BA050E94BA05CF5FC83C99F4A4
:100C10000E940E02DF5FD83C69F40E94B5030E9477
:100C2000D60086EC90E00E94BF040E94D604C0E08B
:100C3000D0E001C0C0E088E18A95F1F700C0DFCFC5
:100C40000F931F93CF93DF938230910510F482E0CE
:100C500090E0E0916E03F0916F0320E030E0C0E09F
:100C6000D0E023C04081518148175907A8F04817A8
:100C7000590761F482819381209719F09B838A83BD
:100C80002EC090936F0380936E0329C02115310508
:100C900029F04217530710F0A90102C0BE01DF017D
:100CA00002811381EF019A01F8013097D9F62115DD
:100CB000310509F1281B390B2430310590F41296C7
:100CC0008D919C9113976115710521F0FB01938320
:100CD000828304C090936F0380936E03FD0132966C
:100CE00044C0FD01E20FF31F81939193225031091B
:100CF0002D933C933AC020916C0330916D03232BCC
:100D000041F42091B0003091B10030936D032093F5
:100D10006C032091AE003091AF002115310541F4F4
:100D20002DB73EB74091B2005091B300241B350B54
:100D3000E0916C03F0916D03E217F307A0F42E1B12
:100D40003F0B2817390778F0AC014E5F5F4F24172F
:100D5000350748F04E0F5F1F50936D0340936C03AF
:100D60008193919302C0E0E0F0E0CF01DF91CF9159
:100D70001F910F910895EF92FF920F931F93CF93BE
:100D8000DF93009709F48EC0DC01129713961C9232
:100D90001E921297E0906E03F0906F03E114F1043D
:100DA00089F42D913C911197280F391F80916C0384
:100DB00090916D038217930789F5B0936D03A0930B
:100DC0006C0370C0E70120E030E001C0EA01CA17FF
:100DD000DB0738F44A815B819E0141155105B1F76B
:100DE00022C0AC0142505109FA01D383C283008171
:100DF0001181BC01600F711F6C177D0761F4688160
:100E00007981600F711F6E5F7F4F718360836A818C
:100E10007B81738362832115310529F4B0936F03BD
:100E2000A0936E033FC0F901B383A283E901499106
:100E30005991C40FD51FAC17BD0771F4DC019E9109
:100E40008E91840F951F02969183808312968D91C7
:100E50009C91139793838283A0E0B0E002C0D701F6
:100E60007C01F701828193810097C9F7C70102963F
:100E700020813181820F931F20916C0330916D038B
:100E80002817390779F4109729F410926F031092FC
:100E90006E0304C013961C921E921297F0926D037B
:100EA000E0926C03CDB7DEB7E6E00C940B09A0E04E
:100EB000B0E0EDE5F7E00C94E3081B013A016115A1
:100EC000710519F0FB01808391836114710439F07D
:100ED0009301225031092332310508F0C7C08C013B
:100EE000F801D1918F012F018D2F90E00E945208BF
:100EF000892BB1F7DD3229F4F801D1912F01C1E03E
:100F000006C0DB3219F4F801D1912F01C0E0611461
:100F1000710409F4B5C0F0E16F16710489F4B7C02B
:100F2000F2018081883719F0883509F0A3C0F201F9
:100F3000D181F2E04F0E511CC26050E1652E712C40
:100F40008AE06816710439F1E0E16E16710429F047
:100F5000F8E06F16710491F407C0CC24CA94DC2C1D
:100F6000EC2C4FE0F42E1DC028E0622E712CCC2416
:100F7000CA94DC2CEC2C3FE1F32E13C093014427E0
:100F800037FD4095542F6FEF7FEFCB010E94C108D2
:100F900069017A0106C099E9C92EDC2CEC2C99E193
:100FA000F92E90E020E030E0A9014301AA2497FC4B
:100FB000A094BA2CED2FE053EA3060F08D2F8154CD
:100FC0008A3110F4E75006C08D2F81568A3140F5E2
:100FD000ED2FE7556E2F70E0661577050CF59F3FF6
:100FE000D9F0C216D306E406F50698F0C501B4019F
:100FF0000E949D089B01AC018E2F90E0A0E0B0E024
:10100000280F391F4A1F5B1F281739074A075B073C
:1010100010F49FEF01C091E0F201D1912F01CACFEE
:101020002114310471F0992321F0F1E04F1A510895
:1010300005C0C1FF06C0F2E04F1A5108F10151820C
:101040004082C0FF07C050954095309521953F4F95
:101050004F4F5F4F97FF1FC082E290E09093710364
:10106000809370032FEF3FEFA90115C020E030E01F
:10107000A90111C0D0E36114710409F475CF60CFE8
:10108000D03309F44DCF8AE0682E712C84CFD03351
:1010900009F056CF45CFB901CA01CDB7DEB7E2E1BD
:1010A0000C94FF08911136C0803219F08950855098
:1010B000D0F708959111089581548A5108F4805E03
:1010C000855A0895FB01DC0101900D920020E1F7A3
:1010D0000895FB019F01E8944230C4F04532B4F416
:1010E0004A3029F497FB1EF4909581959F4F642F09
:1010F00077270E94AD08805D8A330CF0895D81936B
:10110000CB010097A1F716F45DE251931082C9015B
:101110000C948D08992788270895DC01FC01672F1E
:1011200071917723E1F7329704C07C916D937083BE
:101130006291AE17BF07C8F30895DB018F939F93A9
:101140000E941A09BF91AF91A29F800D911DA39F8C
:10115000900DB29F900D11240895AA1BBB1B51E165
:1011600007C0AA1FBB1FA617B70710F0A61BB70B17
:10117000881F991F5A95A9F780959095BC01CD01BC
:101180000895A1E21A2EAA1BBB1BFD010DC0AA1FC8
:10119000BB1FEE1FFF1FA217B307E407F50720F0E0
:1011A000A21BB30BE40BF50B661F771F881F991F5B
:1011B0001A9469F760957095809590959B01AC01A4
:1011C000BD01CF0108952F923F924F925F926F928F
:1011D0007F928F929F92AF92BF92CF92DF92EF92C7
:1011E000FF920F931F93CF93DF93CDB7DEB7CA1B48
:1011F000DB0B0FB6F894DEBF0FBECDBF09942A8873
:10120000398848885F846E847D848C849B84AA841A
:10121000B984C884DF80EE80FD800C811B81AA81A7
:10122000B981CE0FD11D0FB6F894DEBF0FBECDBF72
:10123000ED0108950E942509A59F900DB49F900D82
:10124000A49F800D911D11240895A29FB001B39F0A
:10125000C001A39F01D0B29F700D811D1124911D6B
:061260000895F894FFCF91
:10126600307B310A326D334F341E35573677374A65
:10127600387F395F2D042000617E62376325642F35
:10128600657566746773683669206A0B6B346C31F2
:101296006D626E266F27707C715E72247357747050
:1012A600753B76237719783E793C7A6D407D000050
:1012B600720320000A0A002F6F2F692F626F6F7466
:1012C600696E670D0A00640D0A002F6F2F622F00EA
:1012D6002F6F2F652F002F6F2F642F002F6F2F700A
:1012E6002F302F002F6F2F702F312F00206E6F2081
:1012F600636F6E6E656374696F6E002068696572F0
:10130600206861636B6572627261757365000D0AB0
:1013160074656C6E657420616C706861666C756965
:10132600642E736861636B20313333370D0A0063B3
:101336006F6E6E6563746564202020002F6F2F6FBB
:101346002F002F6F2F612F77726F6E6720666F7277
:061356006D61740D0A0038
:00000001FF
